{
  "contractName": "PollCreation",
  "abi": [
    {
      "constant": true,
      "inputs": [],
      "name": "pollName",
      "outputs": [
        {
          "name": "",
          "type": "string"
        }
      ],
      "payable": false,
      "stateMutability": "view",
      "type": "function",
      "signature": "0x18769765"
    },
    {
      "constant": true,
      "inputs": [],
      "name": "pollOwner",
      "outputs": [
        {
          "name": "",
          "type": "address"
        }
      ],
      "payable": false,
      "stateMutability": "view",
      "type": "function",
      "signature": "0x285ad937"
    },
    {
      "constant": true,
      "inputs": [],
      "name": "timeAlottedForVoting",
      "outputs": [
        {
          "name": "",
          "type": "uint256"
        }
      ],
      "payable": false,
      "stateMutability": "view",
      "type": "function",
      "signature": "0x4b955058"
    },
    {
      "constant": true,
      "inputs": [],
      "name": "numberofVoters",
      "outputs": [
        {
          "name": "",
          "type": "uint256"
        }
      ],
      "payable": false,
      "stateMutability": "view",
      "type": "function",
      "signature": "0x663b508f"
    },
    {
      "constant": true,
      "inputs": [],
      "name": "numberofPolls",
      "outputs": [
        {
          "name": "",
          "type": "uint256"
        }
      ],
      "payable": false,
      "stateMutability": "view",
      "type": "function",
      "signature": "0x75a05a65"
    },
    {
      "constant": true,
      "inputs": [],
      "name": "pollVotingStarts",
      "outputs": [
        {
          "name": "",
          "type": "uint256"
        }
      ],
      "payable": false,
      "stateMutability": "view",
      "type": "function",
      "signature": "0x8d743f09"
    },
    {
      "constant": true,
      "inputs": [
        {
          "name": "",
          "type": "address"
        }
      ],
      "name": "voters",
      "outputs": [
        {
          "name": "voted",
          "type": "bool"
        },
        {
          "name": "vote",
          "type": "uint256"
        },
        {
          "name": "canVote",
          "type": "bool"
        }
      ],
      "payable": false,
      "stateMutability": "view",
      "type": "function",
      "signature": "0xa3ec138d"
    },
    {
      "constant": true,
      "inputs": [],
      "name": "pollStatus",
      "outputs": [
        {
          "name": "",
          "type": "string"
        }
      ],
      "payable": false,
      "stateMutability": "view",
      "type": "function",
      "signature": "0xa9a3e095"
    },
    {
      "constant": true,
      "inputs": [
        {
          "name": "",
          "type": "uint256"
        }
      ],
      "name": "polls",
      "outputs": [
        {
          "name": "pollName",
          "type": "bytes32"
        },
        {
          "name": "voteCount",
          "type": "uint256"
        }
      ],
      "payable": false,
      "stateMutability": "view",
      "type": "function",
      "signature": "0xac2f0074"
    },
    {
      "inputs": [
        {
          "name": "nameOfPolls",
          "type": "bytes32[]"
        },
        {
          "name": "_timeAlottedForVoting",
          "type": "uint256"
        }
      ],
      "payable": false,
      "stateMutability": "nonpayable",
      "type": "constructor",
      "signature": "constructor"
    },
    {
      "constant": true,
      "inputs": [],
      "name": "getPollStatus",
      "outputs": [
        {
          "name": "",
          "type": "string"
        }
      ],
      "payable": false,
      "stateMutability": "view",
      "type": "function",
      "signature": "0x883032e8"
    },
    {
      "constant": false,
      "inputs": [
        {
          "name": "_pollStatus",
          "type": "string"
        }
      ],
      "name": "setPollStatus",
      "outputs": [],
      "payable": false,
      "stateMutability": "nonpayable",
      "type": "function",
      "signature": "0xce06ed46"
    },
    {
      "constant": true,
      "inputs": [],
      "name": "getPollName",
      "outputs": [
        {
          "name": "",
          "type": "string"
        }
      ],
      "payable": false,
      "stateMutability": "view",
      "type": "function",
      "signature": "0x63b6dcda"
    },
    {
      "constant": false,
      "inputs": [
        {
          "name": "_pollName",
          "type": "string"
        }
      ],
      "name": "setPollName",
      "outputs": [],
      "payable": false,
      "stateMutability": "nonpayable",
      "type": "function",
      "signature": "0x64d3f69c"
    },
    {
      "constant": false,
      "inputs": [
        {
          "name": "voter",
          "type": "address"
        }
      ],
      "name": "RightToVote",
      "outputs": [],
      "payable": false,
      "stateMutability": "nonpayable",
      "type": "function",
      "signature": "0x445cf9bf"
    },
    {
      "constant": false,
      "inputs": [
        {
          "name": "poll",
          "type": "uint256"
        }
      ],
      "name": "vote",
      "outputs": [],
      "payable": false,
      "stateMutability": "nonpayable",
      "type": "function",
      "signature": "0x0121b93f"
    },
    {
      "constant": true,
      "inputs": [],
      "name": "returnWinningPoll",
      "outputs": [
        {
          "name": "winningPoll",
          "type": "uint256"
        },
        {
          "name": "nameofPolls",
          "type": "bytes32"
        }
      ],
      "payable": false,
      "stateMutability": "view",
      "type": "function",
      "signature": "0x6b42b5d5"
    }
  ],
  "bytecode": "0x60806040523480156200001157600080fd5b50604051620010bf380380620010bf833981018060405260408110156200003757600080fd5b8101908080516401000000008111156200005057600080fd5b828101905060208101848111156200006757600080fd5b81518560208202830111640100000000821117156200008557600080fd5b505092919060200180519060200190929190505050336000806101000a81548173ffffffffffffffffffffffffffffffffffffffff021916908373ffffffffffffffffffffffffffffffffffffffff1602179055506001600660008060009054906101000a900473ffffffffffffffffffffffffffffffffffffffff1673ffffffffffffffffffffffffffffffffffffffff1673ffffffffffffffffffffffffffffffffffffffff16815260200190815260200160002060020160006101000a81548160ff021916908315150217905550426001819055508060028190555081516009819055506040805190810160405280600f81526020017f4f70656e20666f7220566f74696e67000000000000000000000000000000000081525060039080519060200190620001b992919062000270565b506000600560006101000a81548160ff021916908315150217905550600060088190555060008090505b82518110156200026757620001f7620002f7565b6007600083815260200190815260200160002060408051908101604052908160008201548152602001600182015481525050905083828151811015156200023a57fe5b906020019060200201518160000181815250506000816020018181525050508080600101915050620001e3565b5050506200033c565b828054600181600116156101000203166002900490600052602060002090601f016020900481019282601f10620002b357805160ff1916838001178555620002e4565b82800160010185558215620002e4579182015b82811115620002e3578251825591602001919060010190620002c6565b5b509050620002f3919062000314565b5090565b604080519081016040528060008019168152602001600081525090565b6200033991905b80821115620003355760008160009055506001016200031b565b5090565b90565b610d73806200034c6000396000f3fe6080604052600436106100e6576000357c0100000000000000000000000000000000000000000000000000000000900463ffffffff1680630121b93f146100eb5780631876976514610126578063285ad937146101b6578063445cf9bf1461020d5780634b9550581461025e57806363b6dcda1461028957806364d3f69c14610319578063663b508f146103e15780636b42b5d51461040c57806375a05a651461043e578063883032e8146104695780638d743f09146104f9578063a3ec138d14610524578063a9a3e0951461059f578063ac2f00741461062f578063ce06ed4614610685575b600080fd5b3480156100f757600080fd5b506101246004803603602081101561010e57600080fd5b810190808035906020019092919050505061074d565b005b34801561013257600080fd5b5061013b610800565b6040518080602001828103825283818151815260200191508051906020019080838360005b8381101561017b578082015181840152602081019050610160565b50505050905090810190601f1680156101a85780820380516001836020036101000a031916815260200191505b509250505060405180910390f35b3480156101c257600080fd5b506101cb61089e565b604051808273ffffffffffffffffffffffffffffffffffffffff1673ffffffffffffffffffffffffffffffffffffffff16815260200191505060405180910390f35b34801561021957600080fd5b5061025c6004803603602081101561023057600080fd5b81019080803573ffffffffffffffffffffffffffffffffffffffff1690602001909291905050506108c3565b005b34801561026a57600080fd5b5061027361097c565b6040518082815260200191505060405180910390f35b34801561029557600080fd5b5061029e610982565b6040518080602001828103825283818151815260200191508051906020019080838360005b838110156102de5780820151818401526020810190506102c3565b50505050905090810190601f16801561030b5780820380516001836020036101000a031916815260200191505b509250505060405180910390f35b34801561032557600080fd5b506103df6004803603602081101561033c57600080fd5b810190808035906020019064010000000081111561035957600080fd5b82018360208201111561036b57600080fd5b8035906020019184600183028401116401000000008311171561038d57600080fd5b91908080601f016020809104026020016040519081016040528093929190818152602001838380828437600081840152601f19601f820116905080830192505050505050509192919290505050610a24565b005b3480156103ed57600080fd5b506103f6610a3e565b6040518082815260200191505060405180910390f35b34801561041857600080fd5b50610421610a44565b604051808381526020018281526020019250505060405180910390f35b34801561044a57600080fd5b50610453610ad4565b6040518082815260200191505060405180910390f35b34801561047557600080fd5b5061047e610ada565b6040518080602001828103825283818151815260200191508051906020019080838360005b838110156104be5780820151818401526020810190506104a3565b50505050905090810190601f1680156104eb5780820380516001836020036101000a031916815260200191505b509250505060405180910390f35b34801561050557600080fd5b5061050e610b7c565b6040518082815260200191505060405180910390f35b34801561053057600080fd5b506105736004803603602081101561054757600080fd5b81019080803573ffffffffffffffffffffffffffffffffffffffff169060200190929190505050610b82565b604051808415151515815260200183815260200182151515158152602001935050505060405180910390f35b3480156105ab57600080fd5b506105b4610bc6565b6040518080602001828103825283818151815260200191508051906020019080838360005b838110156105f45780820151818401526020810190506105d9565b50505050905090810190601f1680156106215780820380516001836020036101000a031916815260200191505b509250505060405180910390f35b34801561063b57600080fd5b506106686004803603602081101561065257600080fd5b8101908080359060200190929190505050610c64565b604051808381526020018281526020019250505060405180910390f35b34801561069157600080fd5b5061074b600480360360208110156106a857600080fd5b81019080803590602001906401000000008111156106c557600080fd5b8201836020820111156106d757600080fd5b803590602001918460018302840111640100000000831117156106f957600080fd5b91908080601f016020809104026020016040519081016040528093929190818152602001838380828437600081840152601f19601f820116905080830192505050505050509192919290505050610c88565b005b6002546001540142111561076057600080fd5b6000600660003373ffffffffffffffffffffffffffffffffffffffff1673ffffffffffffffffffffffffffffffffffffffff16815260200190815260200160002090508060000160009054906101000a900460ff16156107bf57600080fd5b60018160000160006101000a81548160ff02191690831515021790555081816001018190555060016007600084815260200190815260200160002050505050565b60048054600181600116156101000203166002900480601f0160208091040260200160405190810160405280929190818152602001828054600181600116156101000203166002900480156108965780601f1061086b57610100808354040283529160200191610896565b820191906000526020600020905b81548152906001019060200180831161087957829003601f168201915b505050505081565b6000809054906101000a900473ffffffffffffffffffffffffffffffffffffffff1681565b6000809054906101000a900473ffffffffffffffffffffffffffffffffffffffff1673ffffffffffffffffffffffffffffffffffffffff163373ffffffffffffffffffffffffffffffffffffffff1614151561091e57600080fd5b6001600660008373ffffffffffffffffffffffffffffffffffffffff1673ffffffffffffffffffffffffffffffffffffffff16815260200190815260200160002060020160006101000a81548160ff02191690831515021790555050565b60025481565b606060048054600181600116156101000203166002900480601f016020809104026020016040519081016040528092919081815260200182805460018160011615610100020316600290048015610a1a5780601f106109ef57610100808354040283529160200191610a1a565b820191906000526020600020905b8154815290600101906020018083116109fd57829003601f168201915b5050505050905090565b8060049080519060200190610a3a929190610ca2565b5050565b60085481565b6000806002546001540142111515610a5b57600080fd5b600080600090505b600954811015610ace578160076000838152602001908152602001600020600101541115610ac15760076000828152602001908152602001600020600101549150809350600760008281526020019081526020016000206000015492505b8080600101915050610a63565b50509091565b60095481565b606060038054600181600116156101000203166002900480601f016020809104026020016040519081016040528092919081815260200182805460018160011615610100020316600290048015610b725780601f10610b4757610100808354040283529160200191610b72565b820191906000526020600020905b815481529060010190602001808311610b5557829003601f168201915b5050505050905090565b60015481565b60066020528060005260406000206000915090508060000160009054906101000a900460ff16908060010154908060020160009054906101000a900460ff16905083565b60038054600181600116156101000203166002900480601f016020809104026020016040519081016040528092919081815260200182805460018160011615610100020316600290048015610c5c5780601f10610c3157610100808354040283529160200191610c5c565b820191906000526020600020905b815481529060010190602001808311610c3f57829003601f168201915b505050505081565b60076020528060005260406000206000915090508060000154908060010154905082565b8060039080519060200190610c9e929190610ca2565b5050565b828054600181600116156101000203166002900490600052602060002090601f016020900481019282601f10610ce357805160ff1916838001178555610d11565b82800160010185558215610d11579182015b82811115610d10578251825591602001919060010190610cf5565b5b509050610d1e9190610d22565b5090565b610d4491905b80821115610d40576000816000905550600101610d28565b5090565b9056fea165627a7a72305820d1898ceeeb154ae36a1c434cd66ff5204573adcaec14bdbb60625f53033221e70029",
  "source": "pragma solidity ^0.5.0;\r\n\r\n/*We are creating our contract Poll Creation as outlined in our Project Proposal\r\n*/\r\ncontract PollCreation{\r\n//This struct represents the information we need to have for Voters in our Polling decentralized application\r\n    struct Voter{\r\n        bool voted; //Has this voter already voted?\r\n        uint vote; //which poll voted on\r\n        bool canVote; //Can this user vote on poll\r\n    }\r\n    \r\n    //Creating the polls to be voted on\r\n    struct Poll{\r\n        bytes32 pollName; //Small Poll size names\r\n        uint voteCount; //number of votes\r\n    }\r\n    \r\n    \r\n    //------------------------State Variables-------------------------\r\n\t//Creator of the contract. Will be used to set limits on fuction usage.\r\n    address public pollOwner;\r\n    uint public pollVotingStarts;\r\n    //Amount of time the poll will be open for. Initialized in PollCreation constructor below.\r\n    uint public timeAlottedForVoting;\r\n    //Status of the Poll created\r\n    string public pollStatus;\r\n\tstring public pollName;\r\n    //Checks if poll is open or not\r\n    bool pollEnded;\r\n    //For Voters \r\n    mapping(address => Voter) public voters;\r\n    //For Polls\r\n    mapping(uint => Poll) public polls;\r\n    //Count the number of voters\r\n    uint public numberofVoters;\r\n    //Count number of Polls created\r\n    uint public numberofPolls;\r\n    \r\n\t\r\n\t//The modifier allows us to check for condition before executing a function\r\n\t//This modifier will only allow the Poll Creator to execute the functions\r\n\t\r\n\tmodifier pollCreator()\r\n\t{\r\n\t    //Will not steal gas , more forgiving. Refunds gas.\r\n\t\trequire(msg.sender == pollOwner);\r\n\t\t_; //Represents the rest of the code being ran\r\n\t\t\r\n\t}\r\n\t\r\n\tconstructor(bytes32[] memory nameOfPolls, uint _timeAlottedForVoting) public{\r\n\t    //The owner of the poll is person who initiatied this contract\r\n\t    pollOwner = msg.sender;\r\n\t    //Give the creator the the poll the right to vote\r\n\t    voters[pollOwner].canVote = true;\r\n\t    //Begin the poll timer\r\n\t    pollVotingStarts = now;\r\n\t    //Retrieve value from the constructor\r\n\t    timeAlottedForVoting = _timeAlottedForVoting;\r\n\t    //Count number of polls created'\r\n\t    numberofPolls = nameOfPolls.length;\r\n\t    //Create poll status\r\n\t    pollStatus = \"Open for Voting\";\r\n\t    //Set pollEnded boolean value\r\n\t    pollEnded = false;\r\n\t    numberofVoters = 0;\r\n\t    \r\n\t    for(uint i=0; i<nameOfPolls.length; i++){\r\n\t        Poll memory p = polls[i];\r\n\t        p.pollName = nameOfPolls[i];\r\n\t        p.voteCount = 0;\r\n\t    }\r\n\t    \r\n\t}\r\n\t\r\n\tfunction getPollStatus() view public returns(string memory) {\r\n\t\treturn pollStatus;\r\n\t}\r\n\r\n\tfunction setPollStatus(string memory _pollStatus) public {\r\n\t\tpollStatus = _pollStatus;\r\n\t}\r\n\r\n\tfunction getPollName() view public returns(string memory) {\r\n\t\treturn pollName;\r\n\t}\r\n\r\n\tfunction setPollName(string memory _pollName) public {\r\n\t\tpollName = _pollName;\r\n\t}\r\n\r\n\t//Change address voter to an array I can pass? Maybe add a paramter to voter to classify?\r\n\tfunction RightToVote(address voter) public pollCreator(){\r\n\t    voters[voter].canVote = true;\r\n\t}\r\n\t\r\n\tfunction vote(uint poll) public{\r\n\t    //Ensure that the poll hasn't ended. Maybe add in the poll ended boolean?\r\n\t    if (now > pollVotingStarts + timeAlottedForVoting){\r\n\t        revert();\r\n\t    }\r\n\t    //Record the person who has voted\r\n\t    Voter storage userVoting = voters[msg.sender];\r\n\t    \r\n\t    if(userVoting.voted){\r\n\t        //Do not Allow double voting\r\n\t        revert();\r\n\t    }\r\n\t    userVoting.voted = true;\r\n\t    userVoting.vote = poll;\r\n\t    \r\n\t    polls[poll].voteCount+1;\r\n\t}\r\n\t\r\n\tfunction returnWinningPoll() view public\r\n\t    returns(uint winningPoll, bytes32 nameofPolls)\r\n\t\r\n\t{//Check voting has ended.\r\n\tif(now <= pollVotingStarts + timeAlottedForVoting) revert(); //If it hasn't throw error\r\n\t\r\n\tuint winningPollByVoteCount;\r\n\tfor(uint x=0; x< numberofPolls;x++){\r\n\t    if(polls[x].voteCount> winningPollByVoteCount){\r\n\t        winningPollByVoteCount = polls[x].voteCount;\r\n\t        winningPoll = x;\r\n\t        nameofPolls = polls[x].pollName;\r\n\t    }\r\n\t}\r\n\t\r\n\t\r\n\t}\r\n\t\r\n}\r\n",
  "sourcePath": "C:/dev/source/blockchain/ElectiondApp/contracts/PollCreation.sol",
  "compiler": {
    "name": "solc",
    "version": "0.5.0+commit.1d4f565a.Emscripten.clang"
  },
  "schemaVersion": "3.0.6",
  "updatedAt": "2019-04-30T02:53:30.941Z",
  "devdoc": {
    "methods": {}
  },
  "userdoc": {
    "methods": {}
  }
}