{
  "contractName": "PollCreation",
  "abi": [
    {
      "constant": true,
      "inputs": [],
      "name": "pollName",
      "outputs": [
        {
          "name": "",
          "type": "string"
        }
      ],
      "payable": false,
      "stateMutability": "view",
      "type": "function"
    },
    {
      "constant": true,
      "inputs": [],
      "name": "pollOwner",
      "outputs": [
        {
          "name": "",
          "type": "address"
        }
      ],
      "payable": false,
      "stateMutability": "view",
      "type": "function"
    },
    {
      "constant": true,
      "inputs": [],
      "name": "timeAlottedForVoting",
      "outputs": [
        {
          "name": "",
          "type": "uint256"
        }
      ],
      "payable": false,
      "stateMutability": "view",
      "type": "function"
    },
    {
      "constant": true,
      "inputs": [],
      "name": "numberofVoters",
      "outputs": [
        {
          "name": "",
          "type": "uint256"
        }
      ],
      "payable": false,
      "stateMutability": "view",
      "type": "function"
    },
    {
      "constant": true,
      "inputs": [],
      "name": "numberofPolls",
      "outputs": [
        {
          "name": "",
          "type": "uint256"
        }
      ],
      "payable": false,
      "stateMutability": "view",
      "type": "function"
    },
    {
      "constant": true,
      "inputs": [],
      "name": "pollVotingStarts",
      "outputs": [
        {
          "name": "",
          "type": "uint256"
        }
      ],
      "payable": false,
      "stateMutability": "view",
      "type": "function"
    },
    {
      "constant": true,
      "inputs": [
        {
          "name": "",
          "type": "address"
        }
      ],
      "name": "voters",
      "outputs": [
        {
          "name": "voted",
          "type": "bool"
        },
        {
          "name": "vote",
          "type": "uint256"
        },
        {
          "name": "canVote",
          "type": "bool"
        }
      ],
      "payable": false,
      "stateMutability": "view",
      "type": "function"
    },
    {
      "constant": true,
      "inputs": [],
      "name": "pollStatus",
      "outputs": [
        {
          "name": "",
          "type": "string"
        }
      ],
      "payable": false,
      "stateMutability": "view",
      "type": "function"
    },
    {
      "constant": true,
      "inputs": [
        {
          "name": "",
          "type": "uint256"
        }
      ],
      "name": "polls",
      "outputs": [
        {
          "name": "pollName",
          "type": "bytes32"
        },
        {
          "name": "voteCount",
          "type": "uint256"
        }
      ],
      "payable": false,
      "stateMutability": "view",
      "type": "function"
    },
    {
      "inputs": [
        {
          "name": "nameOfPolls",
          "type": "bytes32[]"
        },
        {
          "name": "_timeAlottedForVoting",
          "type": "uint256"
        }
      ],
      "payable": false,
      "stateMutability": "nonpayable",
      "type": "constructor"
    },
    {
      "constant": true,
      "inputs": [],
      "name": "getPollStatus",
      "outputs": [
        {
          "name": "",
          "type": "string"
        }
      ],
      "payable": false,
      "stateMutability": "view",
      "type": "function"
    },
    {
      "constant": false,
      "inputs": [
        {
          "name": "_pollStatus",
          "type": "string"
        }
      ],
      "name": "setPollStatus",
      "outputs": [],
      "payable": false,
      "stateMutability": "nonpayable",
      "type": "function"
    },
    {
      "constant": false,
      "inputs": [
        {
          "name": "_pollName",
          "type": "string"
        }
      ],
      "name": "setPollName",
      "outputs": [],
      "payable": false,
      "stateMutability": "nonpayable",
      "type": "function"
    },
    {
      "constant": false,
      "inputs": [
        {
          "name": "voter",
          "type": "address"
        }
      ],
      "name": "RightToVote",
      "outputs": [],
      "payable": false,
      "stateMutability": "nonpayable",
      "type": "function"
    },
    {
      "constant": false,
      "inputs": [
        {
          "name": "poll",
          "type": "uint256"
        }
      ],
      "name": "vote",
      "outputs": [],
      "payable": false,
      "stateMutability": "nonpayable",
      "type": "function"
    },
    {
      "constant": true,
      "inputs": [],
      "name": "returnWinningPoll",
      "outputs": [
        {
          "name": "winningPoll",
          "type": "uint256"
        },
        {
          "name": "nameofPolls",
          "type": "bytes32"
        }
      ],
      "payable": false,
      "stateMutability": "view",
      "type": "function"
    }
  ],
  "bytecode": "0x60806040523480156200001157600080fd5b5060405162000f8238038062000f82833981018060405260408110156200003757600080fd5b8101908080516401000000008111156200005057600080fd5b828101905060208101848111156200006757600080fd5b81518560208202830111640100000000821117156200008557600080fd5b505092919060200180519060200190929190505050336000806101000a81548173ffffffffffffffffffffffffffffffffffffffff021916908373ffffffffffffffffffffffffffffffffffffffff1602179055506001600560008060009054906101000a900473ffffffffffffffffffffffffffffffffffffffff1673ffffffffffffffffffffffffffffffffffffffff1673ffffffffffffffffffffffffffffffffffffffff16815260200190815260200160002060020160006101000a81548160ff021916908315150217905550426001819055508060028190555081516008819055506040805190810160405280600f81526020017f4f70656e20666f7220566f74696e67000000000000000000000000000000000081525060039080519060200190620001b992919062000270565b506000600460006101000a81548160ff021916908315150217905550600060078190555060008090505b82518110156200026757620001f7620002f7565b6006600083815260200190815260200160002060408051908101604052908160008201548152602001600182015481525050905083828151811015156200023a57fe5b906020019060200201518160000181815250506000816020018181525050508080600101915050620001e3565b5050506200033c565b828054600181600116156101000203166002900490600052602060002090601f016020900481019282601f10620002b357805160ff1916838001178555620002e4565b82800160010185558215620002e4579182015b82811115620002e3578251825591602001919060010190620002c6565b5b509050620002f3919062000314565b5090565b604080519081016040528060008019168152602001600081525090565b6200033991905b80821115620003355760008160009055506001016200031b565b5090565b90565b610c36806200034c6000396000f3fe6080604052600436106100db576000357c0100000000000000000000000000000000000000000000000000000000900463ffffffff1680630121b93f146100e0578063187697651461011b578063285ad937146101ab578063445cf9bf146102025780634b9550581461025357806364d3f69c1461027e578063663b508f146103465780636b42b5d51461037157806375a05a65146103a3578063883032e8146103ce5780638d743f091461045e578063a3ec138d14610489578063a9a3e09514610504578063ac2f007414610594578063ce06ed46146105ea575b600080fd5b3480156100ec57600080fd5b506101196004803603602081101561010357600080fd5b81019080803590602001909291905050506106b2565b005b34801561012757600080fd5b50610130610765565b6040518080602001828103825283818151815260200191508051906020019080838360005b83811015610170578082015181840152602081019050610155565b50505050905090810190601f16801561019d5780820380516001836020036101000a031916815260200191505b509250505060405180910390f35b3480156101b757600080fd5b506101c0610803565b604051808273ffffffffffffffffffffffffffffffffffffffff1673ffffffffffffffffffffffffffffffffffffffff16815260200191505060405180910390f35b34801561020e57600080fd5b506102516004803603602081101561022557600080fd5b81019080803573ffffffffffffffffffffffffffffffffffffffff169060200190929190505050610828565b005b34801561025f57600080fd5b506102686108e1565b6040518082815260200191505060405180910390f35b34801561028a57600080fd5b50610344600480360360208110156102a157600080fd5b81019080803590602001906401000000008111156102be57600080fd5b8201836020820111156102d057600080fd5b803590602001918460018302840111640100000000831117156102f257600080fd5b91908080601f016020809104026020016040519081016040528093929190818152602001838380828437600081840152601f19601f8201169050808301925050505050505091929192905050506108e7565b005b34801561035257600080fd5b5061035b610901565b6040518082815260200191505060405180910390f35b34801561037d57600080fd5b50610386610907565b604051808381526020018281526020019250505060405180910390f35b3480156103af57600080fd5b506103b8610997565b6040518082815260200191505060405180910390f35b3480156103da57600080fd5b506103e361099d565b6040518080602001828103825283818151815260200191508051906020019080838360005b83811015610423578082015181840152602081019050610408565b50505050905090810190601f1680156104505780820380516001836020036101000a031916815260200191505b509250505060405180910390f35b34801561046a57600080fd5b50610473610a3f565b6040518082815260200191505060405180910390f35b34801561049557600080fd5b506104d8600480360360208110156104ac57600080fd5b81019080803573ffffffffffffffffffffffffffffffffffffffff169060200190929190505050610a45565b604051808415151515815260200183815260200182151515158152602001935050505060405180910390f35b34801561051057600080fd5b50610519610a89565b6040518080602001828103825283818151815260200191508051906020019080838360005b8381101561055957808201518184015260208101905061053e565b50505050905090810190601f1680156105865780820380516001836020036101000a031916815260200191505b509250505060405180910390f35b3480156105a057600080fd5b506105cd600480360360208110156105b757600080fd5b8101908080359060200190929190505050610b27565b604051808381526020018281526020019250505060405180910390f35b3480156105f657600080fd5b506106b06004803603602081101561060d57600080fd5b810190808035906020019064010000000081111561062a57600080fd5b82018360208201111561063c57600080fd5b8035906020019184600183028401116401000000008311171561065e57600080fd5b91908080601f016020809104026020016040519081016040528093929190818152602001838380828437600081840152601f19601f820116905080830192505050505050509192919290505050610b4b565b005b600254600154014211156106c557600080fd5b6000600560003373ffffffffffffffffffffffffffffffffffffffff1673ffffffffffffffffffffffffffffffffffffffff16815260200190815260200160002090508060000160009054906101000a900460ff161561072457600080fd5b60018160000160006101000a81548160ff02191690831515021790555081816001018190555060016006600084815260200190815260200160002050505050565b60098054600181600116156101000203166002900480601f0160208091040260200160405190810160405280929190818152602001828054600181600116156101000203166002900480156107fb5780601f106107d0576101008083540402835291602001916107fb565b820191906000526020600020905b8154815290600101906020018083116107de57829003601f168201915b505050505081565b6000809054906101000a900473ffffffffffffffffffffffffffffffffffffffff1681565b6000809054906101000a900473ffffffffffffffffffffffffffffffffffffffff1673ffffffffffffffffffffffffffffffffffffffff163373ffffffffffffffffffffffffffffffffffffffff1614151561088357600080fd5b6001600560008373ffffffffffffffffffffffffffffffffffffffff1673ffffffffffffffffffffffffffffffffffffffff16815260200190815260200160002060020160006101000a81548160ff02191690831515021790555050565b60025481565b80600990805190602001906108fd929190610b65565b5050565b60075481565b600080600254600154014211151561091e57600080fd5b600080600090505b6008548110156109915781600660008381526020019081526020016000206001015411156109845760066000828152602001908152602001600020600101549150809350600660008281526020019081526020016000206000015492505b8080600101915050610926565b50509091565b60085481565b606060038054600181600116156101000203166002900480601f016020809104026020016040519081016040528092919081815260200182805460018160011615610100020316600290048015610a355780601f10610a0a57610100808354040283529160200191610a35565b820191906000526020600020905b815481529060010190602001808311610a1857829003601f168201915b5050505050905090565b60015481565b60056020528060005260406000206000915090508060000160009054906101000a900460ff16908060010154908060020160009054906101000a900460ff16905083565b60038054600181600116156101000203166002900480601f016020809104026020016040519081016040528092919081815260200182805460018160011615610100020316600290048015610b1f5780601f10610af457610100808354040283529160200191610b1f565b820191906000526020600020905b815481529060010190602001808311610b0257829003601f168201915b505050505081565b60066020528060005260406000206000915090508060000154908060010154905082565b8060039080519060200190610b61929190610b65565b5050565b828054600181600116156101000203166002900490600052602060002090601f016020900481019282601f10610ba657805160ff1916838001178555610bd4565b82800160010185558215610bd4579182015b82811115610bd3578251825591602001919060010190610bb8565b5b509050610be19190610be5565b5090565b610c0791905b80821115610c03576000816000905550600101610beb565b5090565b9056fea165627a7a72305820ce76fe3c3accb62cc9e8bf99198e08d3aeb2e5fcd07e9e57bc6453695d517f2d0029",
  "source": "pragma solidity ^0.5.0;\r\n\r\n/*We are creating our contract Poll Creation as outlined in our Project Proposal\r\n*/\r\ncontract PollCreation{\r\n//This struct represents the information we need to have for Voters in our Polling decentralized application\r\n    struct Voter{\r\n        bool voted; //Has this voter already voted?\r\n        uint vote; //which poll voted on\r\n        bool canVote; //Can this user vote on poll\r\n    }\r\n    \r\n    //Creating the polls to be voted on\r\n    struct Poll{\r\n        bytes32 pollName; //Small Poll size names\r\n        uint voteCount; //number of votes\r\n    }\r\n    \r\n    \r\n    //------------------------State Variables-------------------------\r\n\t//Creator of the contract. Will be used to set limits on fuction usage.\r\n    address public pollOwner;\r\n    uint public pollVotingStarts;\r\n    //Amount of time the poll will be open for. Initialized in PollCreation constructor below.\r\n    uint public timeAlottedForVoting;\r\n    //Status of the Poll created\r\n    string public pollStatus;\r\n    //Checks if poll is open or not\r\n    bool pollEnded;\r\n    //For Voters \r\n    mapping(address => Voter) public voters;\r\n    //For Polls\r\n    mapping(uint => Poll) public polls;\r\n    //Count the number of voters\r\n    uint public numberofVoters;\r\n    //Count number of Polls created\r\n    uint public numberofPolls;\r\n\tstring public pollName;\r\n    \r\n\t\r\n\t//The modifier allows us to check for condition before executing a function\r\n\t//This modifier will only allow the Poll Creator to execute the functions\r\n\t\r\n\tmodifier pollCreator()\r\n\t{\r\n\t    //Will not steal gas , more forgiving. Refunds gas.\r\n\t\trequire(msg.sender == pollOwner);\r\n\t\t_; //Represents the rest of the code being ran\r\n\t\t\r\n\t}\r\n\t\r\n\tconstructor(bytes32[] memory nameOfPolls, uint _timeAlottedForVoting) public{\r\n\t    //The owner of the poll is person who initiatied this contract\r\n\t    pollOwner = msg.sender;\r\n\t    //Give the creator the the poll the right to vote\r\n\t    voters[pollOwner].canVote = true;\r\n\t    //Begin the poll timer\r\n\t    pollVotingStarts = now;\r\n\t    //Retrieve value from the constructor\r\n\t    timeAlottedForVoting = _timeAlottedForVoting;\r\n\t    //Count number of polls created'\r\n\t    numberofPolls = nameOfPolls.length;\r\n\t    //Create poll status\r\n\t    pollStatus = \"Open for Voting\";\r\n\t    //Set pollEnded boolean value\r\n\t    pollEnded = false;\r\n\t    numberofVoters = 0;\r\n\t    //Initialize the name of the poll as well as vote count to 0\r\n\t    for(uint i=0; i<nameOfPolls.length; i++){\r\n\t        Poll memory p = polls[i];\r\n\t        p.pollName = nameOfPolls[i];\r\n\t        p.voteCount = 0;\r\n\t    }\r\n\t    \r\n\t}\r\n\t\r\n\tfunction getPollStatus() view public returns(string memory) {\r\n\t\treturn pollStatus;\r\n\t}\r\n\r\n\tfunction setPollStatus(string memory _pollStatus) public {\r\n\t\tpollStatus = _pollStatus;\r\n\t}\r\n\r\n\tfunction setPollName(string memory _pollName) public {\r\n\t\tpollName = _pollName;\r\n\t}\r\n\r\n\t//Change address voter to an array I can pass? Maybe add a paramter to voter to classify?\r\n\tfunction RightToVote(address voter) public pollCreator(){\r\n\t    voters[voter].canVote = true;\r\n\t}\r\n\t\r\n\tfunction vote(uint poll) public{\r\n\t    //Ensure that the poll hasn't ended. Maybe add in the poll ended boolean?\r\n\t    if (now > pollVotingStarts + timeAlottedForVoting){\r\n\t        revert();\r\n\t    }\r\n\t    //Record the person who has voted in struct\r\n\t    Voter storage userVoting = voters[msg.sender];\r\n\t    \r\n\t    if(userVoting.voted){\r\n\t        //Do not Allow double voting\r\n\t        revert();\r\n\t    }\r\n\t    userVoting.voted = true;\r\n\t    userVoting.vote = poll;\r\n\t    \r\n\t    polls[poll].voteCount+1;\r\n\t}\r\n\t\r\n\tfunction returnWinningPoll() view public\r\n\t    returns(uint winningPoll, bytes32 nameofPolls)\r\n\t\r\n\t{//Check voting has ended.\r\n\tif(now <= pollVotingStarts + timeAlottedForVoting) revert(); //If it hasn't throw error\r\n\t//check winner by interating through all the polls we have created, check one with the highest poll count\r\n\tuint winningPollByVoteCount;\r\n\tfor(uint x=0; x< numberofPolls;x++){\r\n\t    if(polls[x].voteCount> winningPollByVoteCount){\r\n\t        winningPollByVoteCount = polls[x].voteCount;\r\n\t        winningPoll = x;\r\n\t        nameofPolls = polls[x].pollName;\r\n\t    }\r\n\t}\r\n\t\r\n\t\r\n\t}\r\n\t\r\n}\r\n",
  "sourcePath": "C:/Users/jpinder1/Documents/Blockchain And Applications/ElectiondApp/eth-react-test/contracts/PollCreation.sol",
  "compiler": {
    "name": "solc",
    "version": "0.5.0+commit.1d4f565a.Emscripten.clang"
  },
  "schemaVersion": "3.0.1",
  "updatedAt": "2019-04-17T13:47:08.363Z",
  "devdoc": {
    "methods": {}
  },
  "userdoc": {
    "methods": {}
  }
}