{
  "contractName": "PollCreation",
  "abi": [
    {
      "constant": true,
      "inputs": [],
      "name": "pollName",
      "outputs": [
        {
          "name": "",
          "type": "string"
        }
      ],
      "payable": false,
      "stateMutability": "view",
      "type": "function",
      "signature": "0x18769765"
    },
    {
      "constant": true,
      "inputs": [],
      "name": "pollOwner",
      "outputs": [
        {
          "name": "",
          "type": "address"
        }
      ],
      "payable": false,
      "stateMutability": "view",
      "type": "function",
      "signature": "0x285ad937"
    },
    {
      "constant": true,
      "inputs": [],
      "name": "timeAlottedForVoting",
      "outputs": [
        {
          "name": "",
          "type": "uint256"
        }
      ],
      "payable": false,
      "stateMutability": "view",
      "type": "function",
      "signature": "0x4b955058"
    },
    {
      "constant": true,
      "inputs": [],
      "name": "numberofVoters",
      "outputs": [
        {
          "name": "",
          "type": "uint256"
        }
      ],
      "payable": false,
      "stateMutability": "view",
      "type": "function",
      "signature": "0x663b508f"
    },
    {
      "constant": true,
      "inputs": [],
      "name": "numberofPolls",
      "outputs": [
        {
          "name": "",
          "type": "uint256"
        }
      ],
      "payable": false,
      "stateMutability": "view",
      "type": "function",
      "signature": "0x75a05a65"
    },
    {
      "constant": true,
      "inputs": [],
      "name": "pollVotingStarts",
      "outputs": [
        {
          "name": "",
          "type": "uint256"
        }
      ],
      "payable": false,
      "stateMutability": "view",
      "type": "function",
      "signature": "0x8d743f09"
    },
    {
      "constant": true,
      "inputs": [
        {
          "name": "",
          "type": "address"
        }
      ],
      "name": "voters",
      "outputs": [
        {
          "name": "voted",
          "type": "bool"
        },
        {
          "name": "vote",
          "type": "uint256"
        },
        {
          "name": "canVote",
          "type": "bool"
        }
      ],
      "payable": false,
      "stateMutability": "view",
      "type": "function",
      "signature": "0xa3ec138d"
    },
    {
      "constant": true,
      "inputs": [],
      "name": "pollStatus",
      "outputs": [
        {
          "name": "",
          "type": "string"
        }
      ],
      "payable": false,
      "stateMutability": "view",
      "type": "function",
      "signature": "0xa9a3e095"
    },
    {
      "constant": true,
      "inputs": [
        {
          "name": "",
          "type": "uint256"
        }
      ],
      "name": "polls",
      "outputs": [
        {
          "name": "pollName",
          "type": "bytes32"
        },
        {
          "name": "voteCount",
          "type": "uint256"
        }
      ],
      "payable": false,
      "stateMutability": "view",
      "type": "function",
      "signature": "0xac2f0074"
    },
    {
      "inputs": [
        {
          "name": "nameOfPolls",
          "type": "bytes32[]"
        },
        {
          "name": "_timeAlottedForVoting",
          "type": "uint256"
        }
      ],
      "payable": false,
      "stateMutability": "nonpayable",
      "type": "constructor",
      "signature": "constructor"
    },
    {
      "constant": false,
      "inputs": [
        {
          "name": "_pollName",
          "type": "string"
        }
      ],
      "name": "setPollName",
      "outputs": [],
      "payable": false,
      "stateMutability": "nonpayable",
      "type": "function",
      "signature": "0x64d3f69c"
    },
    {
      "constant": false,
      "inputs": [
        {
          "name": "voter",
          "type": "address"
        }
      ],
      "name": "RightToVote",
      "outputs": [],
      "payable": false,
      "stateMutability": "nonpayable",
      "type": "function",
      "signature": "0x445cf9bf"
    },
    {
      "constant": false,
      "inputs": [
        {
          "name": "poll",
          "type": "uint256"
        }
      ],
      "name": "vote",
      "outputs": [],
      "payable": false,
      "stateMutability": "nonpayable",
      "type": "function",
      "signature": "0x0121b93f"
    },
    {
      "constant": true,
      "inputs": [],
      "name": "returnWinningPoll",
      "outputs": [
        {
          "name": "winningPoll",
          "type": "uint256"
        },
        {
          "name": "nameofPolls",
          "type": "bytes32"
        }
      ],
      "payable": false,
      "stateMutability": "view",
      "type": "function",
      "signature": "0x6b42b5d5"
    }
  ],
  "bytecode": "0x60806040526000805534801561001457600080fd5b50604051610d46380380610d468339810180604052604081101561003757600080fd5b81019080805164010000000081111561004f57600080fd5b8281019050602081018481111561006557600080fd5b815185602082028301116401000000008211171561008257600080fd5b50509291906020018051906020019092919050505033600160006101000a81548173ffffffffffffffffffffffffffffffffffffffff021916908373ffffffffffffffffffffffffffffffffffffffff160217905550600160066000600160009054906101000a900473ffffffffffffffffffffffffffffffffffffffff1673ffffffffffffffffffffffffffffffffffffffff1673ffffffffffffffffffffffffffffffffffffffff16815260200190815260200160002060020160006101000a81548160ff021916908315150217905550426002819055508060038190555081516000819055506040805190810160405280600f81526020017f4f70656e20666f7220566f74696e670000000000000000000000000000000000815250600490805190602001906101b6929190610267565b506000600560006101000a81548160ff021916908315150217905550600060088190555060008090505b825181101561025f576101f16102e7565b60076000838152602001908152602001600020604080519081016040529081600082015481526020016001820154815250509050838281518110151561023357fe5b9060200190602002015181600001818152505060008160200181815250505080806001019150506101e0565b505050610329565b828054600181600116156101000203166002900490600052602060002090601f016020900481019282601f106102a857805160ff19168380011785556102d6565b828001600101855582156102d6579182015b828111156102d55782518255916020019190600101906102ba565b5b5090506102e39190610304565b5090565b604080519081016040528060008019168152602001600081525090565b61032691905b8082111561032257600081600090555060010161030a565b5090565b90565b610a0e806103386000396000f3fe6080604052600436106100c5576000357c0100000000000000000000000000000000000000000000000000000000900463ffffffff1680630121b93f146100ca5780631876976514610105578063285ad93714610195578063445cf9bf146101ec5780634b9550581461023d57806364d3f69c14610268578063663b508f146103305780636b42b5d51461035b57806375a05a651461038d5780638d743f09146103b8578063a3ec138d146103e3578063a9a3e0951461045e578063ac2f0074146104ee575b600080fd5b3480156100d657600080fd5b50610103600480360360208110156100ed57600080fd5b8101908080359060200190929190505050610544565b005b34801561011157600080fd5b5061011a6105f7565b6040518080602001828103825283818151815260200191508051906020019080838360005b8381101561015a57808201518184015260208101905061013f565b50505050905090810190601f1680156101875780820380516001836020036101000a031916815260200191505b509250505060405180910390f35b3480156101a157600080fd5b506101aa610695565b604051808273ffffffffffffffffffffffffffffffffffffffff1673ffffffffffffffffffffffffffffffffffffffff16815260200191505060405180910390f35b3480156101f857600080fd5b5061023b6004803603602081101561020f57600080fd5b81019080803573ffffffffffffffffffffffffffffffffffffffff1690602001909291905050506106bb565b005b34801561024957600080fd5b50610252610775565b6040518082815260200191505060405180910390f35b34801561027457600080fd5b5061032e6004803603602081101561028b57600080fd5b81019080803590602001906401000000008111156102a857600080fd5b8201836020820111156102ba57600080fd5b803590602001918460018302840111640100000000831117156102dc57600080fd5b91908080601f016020809104026020016040519081016040528093929190818152602001838380828437600081840152601f19601f82011690508083019250505050505050919291929050505061077b565b005b34801561033c57600080fd5b50610345610795565b6040518082815260200191505060405180910390f35b34801561036757600080fd5b5061037061079b565b604051808381526020018281526020019250505060405180910390f35b34801561039957600080fd5b506103a261082b565b6040518082815260200191505060405180910390f35b3480156103c457600080fd5b506103cd610831565b6040518082815260200191505060405180910390f35b3480156103ef57600080fd5b506104326004803603602081101561040657600080fd5b81019080803573ffffffffffffffffffffffffffffffffffffffff169060200190929190505050610837565b604051808415151515815260200183815260200182151515158152602001935050505060405180910390f35b34801561046a57600080fd5b5061047361087b565b6040518080602001828103825283818151815260200191508051906020019080838360005b838110156104b3578082015181840152602081019050610498565b50505050905090810190601f1680156104e05780820380516001836020036101000a031916815260200191505b509250505060405180910390f35b3480156104fa57600080fd5b506105276004803603602081101561051157600080fd5b8101908080359060200190929190505050610919565b604051808381526020018281526020019250505060405180910390f35b6003546002540142111561055757600080fd5b6000600660003373ffffffffffffffffffffffffffffffffffffffff1673ffffffffffffffffffffffffffffffffffffffff16815260200190815260200160002090508060000160009054906101000a900460ff16156105b657600080fd5b60018160000160006101000a81548160ff02191690831515021790555081816001018190555060016007600084815260200190815260200160002050505050565b60098054600181600116156101000203166002900480601f01602080910402602001604051908101604052809291908181526020018280546001816001161561010002031660029004801561068d5780601f106106625761010080835404028352916020019161068d565b820191906000526020600020905b81548152906001019060200180831161067057829003601f168201915b505050505081565b600160009054906101000a900473ffffffffffffffffffffffffffffffffffffffff1681565b600160009054906101000a900473ffffffffffffffffffffffffffffffffffffffff1673ffffffffffffffffffffffffffffffffffffffff163373ffffffffffffffffffffffffffffffffffffffff1614151561071757600080fd5b6001600660008373ffffffffffffffffffffffffffffffffffffffff1673ffffffffffffffffffffffffffffffffffffffff16815260200190815260200160002060020160006101000a81548160ff02191690831515021790555050565b60035481565b806009908051906020019061079192919061093d565b5050565b60085481565b60008060035460025401421115156107b257600080fd5b600080600090505b6000548110156108255781600760008381526020019081526020016000206001015411156108185760076000828152602001908152602001600020600101549150809350600760008281526020019081526020016000206000015492505b80806001019150506107ba565b50509091565b60005481565b60025481565b60066020528060005260406000206000915090508060000160009054906101000a900460ff16908060010154908060020160009054906101000a900460ff16905083565b60048054600181600116156101000203166002900480601f0160208091040260200160405190810160405280929190818152602001828054600181600116156101000203166002900480156109115780601f106108e657610100808354040283529160200191610911565b820191906000526020600020905b8154815290600101906020018083116108f457829003601f168201915b505050505081565b60076020528060005260406000206000915090508060000154908060010154905082565b828054600181600116156101000203166002900490600052602060002090601f016020900481019282601f1061097e57805160ff19168380011785556109ac565b828001600101855582156109ac579182015b828111156109ab578251825591602001919060010190610990565b5b5090506109b991906109bd565b5090565b6109df91905b808211156109db5760008160009055506001016109c3565b5090565b9056fea165627a7a723058209fd1e72a2b7e170dbb39da6d53bd7b5f687824162e6909b4c7132adbae6e8da30029",
  "source": "pragma solidity ^0.5.0;\r\n\r\n/*We are creating our contract Poll Creation as outlined in our Project Proposal\r\n*/\r\ncontract PollCreation{\r\n\r\n//This struct represents the information we need to have for Voters in our Polling decentralized application\r\n    struct Voter{\r\n        bool voted; //Has this voter already voted?\r\n        uint vote; //which poll voted on\r\n        bool canVote; //Can this user vote on poll\r\n    }\r\n    \r\n    //Creating the polls to be voted on\r\n    struct Poll{\r\n        bytes32 pollName; //Small Poll size names\r\n        uint voteCount; //number of votes\r\n    }\r\n        //------------------------State Variables-------------------------\r\n    //Count number of Polls created\r\n    uint public numberofPolls=0;\t\r\n\t//Creator of the contract. Will be used to set limits on fuction usage.\r\n    address public pollOwner;\r\n    uint public pollVotingStarts;\r\n    //Amount of time the poll will be open for. Initialized in PollCreation constructor below.\r\n    uint public timeAlottedForVoting;\r\n    //Status of the Poll created\r\n    string public pollStatus;\r\n    //Checks if poll is open or not\r\n    bool pollEnded;\r\n    //For Voters \r\n    mapping(address => Voter) public voters;\r\n    //For Polls\r\n    mapping(uint => Poll) public polls;\r\n    //Count the number of voters\r\n    uint public numberofVoters;\r\n    string public pollName;\r\n\r\n    \r\n    \r\n\t\r\n\t//The modifier allows us to check for condition before executing a function\r\n\t//This modifier will only allow the Poll Creator to execute the functions\r\n\t\r\n\tmodifier pollCreator()\r\n\t{\r\n\t    //Will not steal gas , more forgiving. Refunds gas.\r\n\t\trequire(msg.sender == pollOwner);\r\n\t\t_; //Represents the rest of the code being ran\r\n\t\t\r\n\t}\r\n\t\r\n\tconstructor(bytes32[] memory nameOfPolls, uint _timeAlottedForVoting) public{\r\n\t    //The owner of the poll is person who initiatied this contract\r\n\t    pollOwner = msg.sender;\r\n\t    //Give the creator the the poll the right to vote\r\n\t    voters[pollOwner].canVote = true;\r\n\t    //Begin the poll timer\r\n\t    pollVotingStarts = now;\r\n\t    //Retrieve value from the constructor\r\n\t    timeAlottedForVoting = _timeAlottedForVoting;\r\n\t    //Count number of polls created'\r\n\t    numberofPolls = nameOfPolls.length;\r\n\t    //Create poll status\r\n\t    pollStatus = \"Open for Voting\";\r\n\t    //Set pollEnded boolean value\r\n\t    pollEnded = false;\r\n\t    numberofVoters = 0;\r\n\t    \r\n\t    for(uint i=0; i<nameOfPolls.length; i++){\r\n\t        Poll memory p = polls[i];\r\n\t        p.pollName = nameOfPolls[i];\r\n\t        p.voteCount = 0;\r\n\t    }\r\n\t    \r\n\t}\r\n\t\r\n\tfunction setPollName(string memory _pollName) public {\r\n\t\tpollName = _pollName;\r\n\t}\r\n\r\n\t//Change address voter to an array I can pass? Maybe add a paramter to voter to classify?\r\n\tfunction RightToVote(address voter) public pollCreator(){\r\n\t    voters[voter].canVote = true;\r\n\t}\r\n\t\r\n\tfunction vote(uint poll) public{\r\n\t    //Ensure that the poll hasn't ended. Maybe add in the poll ended boolean?\r\n\t    if (now > pollVotingStarts + timeAlottedForVoting){\r\n\t        revert();\r\n\t    }\r\n\t    //Record the person who has voted\r\n\t    Voter storage userVoting = voters[msg.sender];\r\n\t    \r\n\t    if(userVoting.voted){\r\n\t        //Do not Allow double voting\r\n\t        revert();\r\n\t    }\r\n\t    userVoting.voted = true;\r\n\t    userVoting.vote = poll;\r\n\t    \r\n\t    polls[poll].voteCount+1;\r\n\t}\r\n\t\r\n\tfunction returnWinningPoll() view public\r\n\t    returns(uint winningPoll, bytes32 nameofPolls)\r\n\t\r\n\t{//Check voting has ended.\r\n\tif(now <= pollVotingStarts + timeAlottedForVoting) revert(); //If it hasn't throw error\r\n\t\r\n\tuint winningPollByVoteCount;\r\n\tfor(uint x=0; x< numberofPolls;x++){\r\n\t    if(polls[x].voteCount> winningPollByVoteCount){\r\n\t        winningPollByVoteCount = polls[x].voteCount;\r\n\t        winningPoll = x;\r\n\t        nameofPolls = polls[x].pollName;\r\n\t    }\r\n\t}\r\n\t\r\n\t\r\n\t}\r\n\t\r\n}\r\n",
  "sourcePath": "C:/dev/source/blockchain/ElectiondApp/contracts/PollCreation.sol",
  "compiler": {
    "name": "solc",
    "version": "0.5.0+commit.1d4f565a.Emscripten.clang"
  },
  "schemaVersion": "3.0.6",
  "updatedAt": "2019-04-29T03:47:23.615Z",
  "devdoc": {
    "methods": {}
  },
  "userdoc": {
    "methods": {}
  }
}